{
    "contractName": "flipCard",
    "abi": [
        {
            "inputs": [],
            "stateMutability": "nonpayable",
            "type": "constructor"
        },
        {
            "anonymous": false,
            "inputs": [
                {
                    "indexed": true,
                    "internalType": "address",
                    "name": "owner",
                    "type": "address"
                },
                {
                    "indexed": true,
                    "internalType": "address",
                    "name": "approved",
                    "type": "address"
                },
                {
                    "indexed": true,
                    "internalType": "uint256",
                    "name": "tokenId",
                    "type": "uint256"
                }
            ],
            "name": "Approval",
            "type": "event"
        },
        {
            "anonymous": false,
            "inputs": [
                {
                    "indexed": true,
                    "internalType": "address",
                    "name": "owner",
                    "type": "address"
                },
                {
                    "indexed": true,
                    "internalType": "address",
                    "name": "operator",
                    "type": "address"
                },
                {
                    "indexed": false,
                    "internalType": "bool",
                    "name": "approved",
                    "type": "bool"
                }
            ],
            "name": "ApprovalForAll",
            "type": "event"
        },
        {
            "anonymous": false,
            "inputs": [
                {
                    "indexed": true,
                    "internalType": "bytes32",
                    "name": "role",
                    "type": "bytes32"
                },
                {
                    "indexed": true,
                    "internalType": "bytes32",
                    "name": "previousAdminRole",
                    "type": "bytes32"
                },
                {
                    "indexed": true,
                    "internalType": "bytes32",
                    "name": "newAdminRole",
                    "type": "bytes32"
                }
            ],
            "name": "RoleAdminChanged",
            "type": "event"
        },
        {
            "anonymous": false,
            "inputs": [
                {
                    "indexed": true,
                    "internalType": "bytes32",
                    "name": "role",
                    "type": "bytes32"
                },
                {
                    "indexed": true,
                    "internalType": "address",
                    "name": "account",
                    "type": "address"
                },
                {
                    "indexed": true,
                    "internalType": "address",
                    "name": "sender",
                    "type": "address"
                }
            ],
            "name": "RoleGranted",
            "type": "event"
        },
        {
            "anonymous": false,
            "inputs": [
                {
                    "indexed": true,
                    "internalType": "bytes32",
                    "name": "role",
                    "type": "bytes32"
                },
                {
                    "indexed": true,
                    "internalType": "address",
                    "name": "account",
                    "type": "address"
                },
                {
                    "indexed": true,
                    "internalType": "address",
                    "name": "sender",
                    "type": "address"
                }
            ],
            "name": "RoleRevoked",
            "type": "event"
        },
        {
            "anonymous": false,
            "inputs": [
                {
                    "indexed": true,
                    "internalType": "address",
                    "name": "from",
                    "type": "address"
                },
                {
                    "indexed": true,
                    "internalType": "address",
                    "name": "to",
                    "type": "address"
                },
                {
                    "indexed": true,
                    "internalType": "uint256",
                    "name": "tokenId",
                    "type": "uint256"
                }
            ],
            "name": "Transfer",
            "type": "event"
        },
        {
            "inputs": [],
            "name": "BOOK_KEEPER_ROLE",
            "outputs": [
                {
                    "internalType": "bytes32",
                    "name": "",
                    "type": "bytes32"
                }
            ],
            "stateMutability": "view",
            "type": "function"
        },
        {
            "inputs": [],
            "name": "DEFAULT_ADMIN_ROLE",
            "outputs": [
                {
                    "internalType": "bytes32",
                    "name": "",
                    "type": "bytes32"
                }
            ],
            "stateMutability": "view",
            "type": "function"
        },
        {
            "inputs": [],
            "name": "HANDLER_ROLE",
            "outputs": [
                {
                    "internalType": "bytes32",
                    "name": "",
                    "type": "bytes32"
                }
            ],
            "stateMutability": "view",
            "type": "function"
        },
        {
            "inputs": [],
            "name": "MINTER_ROLE",
            "outputs": [
                {
                    "internalType": "bytes32",
                    "name": "",
                    "type": "bytes32"
                }
            ],
            "stateMutability": "view",
            "type": "function"
        },
        {
            "inputs": [
                {
                    "internalType": "address",
                    "name": "to",
                    "type": "address"
                },
                {
                    "internalType": "uint256",
                    "name": "tokenId",
                    "type": "uint256"
                }
            ],
            "name": "approve",
            "outputs": [],
            "stateMutability": "nonpayable",
            "type": "function"
        },
        {
            "inputs": [
                {
                    "internalType": "address",
                    "name": "owner",
                    "type": "address"
                }
            ],
            "name": "balanceOf",
            "outputs": [
                {
                    "internalType": "uint256",
                    "name": "",
                    "type": "uint256"
                }
            ],
            "stateMutability": "view",
            "type": "function"
        },
        {
            "inputs": [
                {
                    "internalType": "uint256",
                    "name": "tokenId",
                    "type": "uint256"
                }
            ],
            "name": "burn",
            "outputs": [],
            "stateMutability": "nonpayable",
            "type": "function"
        },
        {
            "inputs": [
                {
                    "internalType": "uint256",
                    "name": "tokenId",
                    "type": "uint256"
                }
            ],
            "name": "getApproved",
            "outputs": [
                {
                    "internalType": "address",
                    "name": "",
                    "type": "address"
                }
            ],
            "stateMutability": "view",
            "type": "function"
        },
        {
            "inputs": [
                {
                    "internalType": "bytes32",
                    "name": "role",
                    "type": "bytes32"
                }
            ],
            "name": "getRoleAdmin",
            "outputs": [
                {
                    "internalType": "bytes32",
                    "name": "",
                    "type": "bytes32"
                }
            ],
            "stateMutability": "view",
            "type": "function"
        },
        {
            "inputs": [
                {
                    "internalType": "bytes32",
                    "name": "role",
                    "type": "bytes32"
                },
                {
                    "internalType": "address",
                    "name": "account",
                    "type": "address"
                }
            ],
            "name": "grantRole",
            "outputs": [],
            "stateMutability": "nonpayable",
            "type": "function"
        },
        {
            "inputs": [
                {
                    "internalType": "bytes32",
                    "name": "role",
                    "type": "bytes32"
                },
                {
                    "internalType": "address",
                    "name": "account",
                    "type": "address"
                }
            ],
            "name": "hasRole",
            "outputs": [
                {
                    "internalType": "bool",
                    "name": "",
                    "type": "bool"
                }
            ],
            "stateMutability": "view",
            "type": "function"
        },
        {
            "inputs": [
                {
                    "internalType": "address",
                    "name": "owner",
                    "type": "address"
                },
                {
                    "internalType": "address",
                    "name": "operator",
                    "type": "address"
                }
            ],
            "name": "isApprovedForAll",
            "outputs": [
                {
                    "internalType": "bool",
                    "name": "",
                    "type": "bool"
                }
            ],
            "stateMutability": "view",
            "type": "function"
        },
        {
            "inputs": [],
            "name": "name",
            "outputs": [
                {
                    "internalType": "string",
                    "name": "",
                    "type": "string"
                }
            ],
            "stateMutability": "view",
            "type": "function"
        },
        {
            "inputs": [
                {
                    "internalType": "uint256",
                    "name": "tokenId",
                    "type": "uint256"
                }
            ],
            "name": "ownerOf",
            "outputs": [
                {
                    "internalType": "address",
                    "name": "",
                    "type": "address"
                }
            ],
            "stateMutability": "view",
            "type": "function"
        },
        {
            "inputs": [
                {
                    "internalType": "bytes32",
                    "name": "role",
                    "type": "bytes32"
                },
                {
                    "internalType": "address",
                    "name": "account",
                    "type": "address"
                }
            ],
            "name": "renounceRole",
            "outputs": [],
            "stateMutability": "nonpayable",
            "type": "function"
        },
        {
            "inputs": [
                {
                    "internalType": "bytes32",
                    "name": "role",
                    "type": "bytes32"
                },
                {
                    "internalType": "address",
                    "name": "account",
                    "type": "address"
                }
            ],
            "name": "revokeRole",
            "outputs": [],
            "stateMutability": "nonpayable",
            "type": "function"
        },
        {
            "inputs": [
                {
                    "internalType": "address",
                    "name": "from",
                    "type": "address"
                },
                {
                    "internalType": "address",
                    "name": "to",
                    "type": "address"
                },
                {
                    "internalType": "uint256",
                    "name": "tokenId",
                    "type": "uint256"
                }
            ],
            "name": "safeTransferFrom",
            "outputs": [],
            "stateMutability": "nonpayable",
            "type": "function"
        },
        {
            "inputs": [
                {
                    "internalType": "address",
                    "name": "from",
                    "type": "address"
                },
                {
                    "internalType": "address",
                    "name": "to",
                    "type": "address"
                },
                {
                    "internalType": "uint256",
                    "name": "tokenId",
                    "type": "uint256"
                },
                {
                    "internalType": "bytes",
                    "name": "_data",
                    "type": "bytes"
                }
            ],
            "name": "safeTransferFrom",
            "outputs": [],
            "stateMutability": "nonpayable",
            "type": "function"
        },
        {
            "inputs": [
                {
                    "internalType": "address",
                    "name": "operator",
                    "type": "address"
                },
                {
                    "internalType": "bool",
                    "name": "approved",
                    "type": "bool"
                }
            ],
            "name": "setApprovalForAll",
            "outputs": [],
            "stateMutability": "nonpayable",
            "type": "function"
        },
        {
            "inputs": [],
            "name": "symbol",
            "outputs": [
                {
                    "internalType": "string",
                    "name": "",
                    "type": "string"
                }
            ],
            "stateMutability": "view",
            "type": "function"
        },
        {
            "inputs": [
                {
                    "internalType": "address",
                    "name": "from",
                    "type": "address"
                },
                {
                    "internalType": "address",
                    "name": "to",
                    "type": "address"
                },
                {
                    "internalType": "uint256",
                    "name": "tokenId",
                    "type": "uint256"
                }
            ],
            "name": "transferFrom",
            "outputs": [],
            "stateMutability": "nonpayable",
            "type": "function"
        },
        {
            "inputs": [
                {
                    "internalType": "address",
                    "name": "account",
                    "type": "address"
                }
            ],
            "name": "isMinter",
            "outputs": [
                {
                    "internalType": "bool",
                    "name": "",
                    "type": "bool"
                }
            ],
            "stateMutability": "view",
            "type": "function"
        },
        {
            "inputs": [
                {
                    "internalType": "address",
                    "name": "account",
                    "type": "address"
                }
            ],
            "name": "isAdmin",
            "outputs": [
                {
                    "internalType": "bool",
                    "name": "",
                    "type": "bool"
                }
            ],
            "stateMutability": "view",
            "type": "function"
        },
        {
            "inputs": [
                {
                    "internalType": "address",
                    "name": "member",
                    "type": "address"
                },
                {
                    "internalType": "bytes32",
                    "name": "role",
                    "type": "bytes32"
                }
            ],
            "name": "addRole",
            "outputs": [],
            "stateMutability": "nonpayable",
            "type": "function"
        },
        {
            "inputs": [
                {
                    "internalType": "address",
                    "name": "to",
                    "type": "address"
                },
                {
                    "internalType": "string",
                    "name": "uri",
                    "type": "string"
                }
            ],
            "name": "safeMint",
            "outputs": [],
            "stateMutability": "nonpayable",
            "type": "function"
        },
        {
            "inputs": [],
            "name": "heartbear",
            "outputs": [
                {
                    "internalType": "uint256",
                    "name": "",
                    "type": "uint256"
                }
            ],
            "stateMutability": "nonpayable",
            "type": "function"
        },
        {
            "inputs": [
                {
                    "internalType": "uint256",
                    "name": "tokenId",
                    "type": "uint256"
                }
            ],
            "name": "tokenURI",
            "outputs": [
                {
                    "internalType": "string",
                    "name": "",
                    "type": "string"
                }
            ],
            "stateMutability": "view",
            "type": "function"
        },
        {
            "inputs": [
                {
                    "internalType": "bytes4",
                    "name": "interfaceId",
                    "type": "bytes4"
                }
            ],
            "name": "supportsInterface",
            "outputs": [
                {
                    "internalType": "bool",
                    "name": "",
                    "type": "bool"
                }
            ],
            "stateMutability": "view",
            "type": "function"
        }
    ],
    "bytecode": "0x60806040523480156200001157600080fd5b506040518060400160405280600981526020017f466c6970436172647300000000000000000000000000000000000000000000008152506040518060400160405280600581526020017f4643524453000000000000000000000000000000000000000000000000000000815250816000908051906020019062000096929190620002c8565b508060019080519060200190620000af929190620002c8565b505050620000c76000801b336200016360201b60201c565b620000f97f9f2df0fed2c77648de5860a4cc508cd0818c85b8b8a1ab4ceeef8d981c8956a6336200016360201b60201c565b6200012b7f8ee6ed50dc250dbccf4d86bd88d4956ab55c7de37d1fed5508924b70da11fe8b336200016360201b60201c565b6200015d7f1cf2b81dce95f0e7b91e95903f9b70bc58c33207c55b6b0bc3ba3d0522942e31336200016360201b60201c565b620003dd565b6200017582826200025560201b60201c565b620002515760016007600084815260200190815260200160002060000160008373ffffffffffffffffffffffffffffffffffffffff1673ffffffffffffffffffffffffffffffffffffffff16815260200190815260200160002060006101000a81548160ff021916908315150217905550620001f6620002c060201b60201c565b73ffffffffffffffffffffffffffffffffffffffff168173ffffffffffffffffffffffffffffffffffffffff16837f2f8788117e7eff1d82e926ec794901d17c78024a50270940304540a733656f0d60405160405180910390a45b5050565b60006007600084815260200190815260200160002060000160008373ffffffffffffffffffffffffffffffffffffffff1673ffffffffffffffffffffffffffffffffffffffff16815260200190815260200160002060009054906101000a900460ff16905092915050565b600033905090565b828054620002d690620003a7565b90600052602060002090601f016020900481019282620002fa576000855562000346565b82601f106200031557805160ff191683800117855562000346565b8280016001018555821562000346579182015b828111156200034557825182559160200191906001019062000328565b5b50905062000355919062000359565b5090565b5b80821115620003745760008160009055506001016200035a565b5090565b7f4e487b7100000000000000000000000000000000000000000000000000000000600052602260045260246000fd5b60006002820490506001821680620003c057607f821691505b60208210811415620003d757620003d662000378565b5b50919050565b613e5480620003ed6000396000f3fe608060405234801561001057600080fd5b50600436106101c45760003560e01c80637afa9e9c116100f9578063aa271e1a11610097578063d204c45e11610071578063d204c45e14610529578063d539139314610545578063d547741f14610563578063e985e9c51461057f576101c4565b8063aa271e1a146104ad578063b88d4fde146104dd578063c87b56dd146104f9576101c4565b806395d89b41116100d357806395d89b4114610439578063a217fddf14610457578063a22cb46514610475578063a73f7f8a14610491576101c4565b80637afa9e9c146103cd5780637d6be27e146103eb57806391d1485414610409576101c4565b80632f2ff15d1161016657806342966c681161014057806342966c68146103335780636352211e1461034f5780636792166f1461037f57806370a082311461039d576101c4565b80632f2ff15d146102df57806336568abe146102fb57806342842e0e14610317576101c4565b8063095ea7b3116101a2578063095ea7b31461024757806323b872dd14610263578063248a9ca31461027f57806324d7806c146102af576101c4565b806301ffc9a7146101c957806306fdde03146101f9578063081812fc14610217575b600080fd5b6101e360048036038101906101de91906126eb565b6105af565b6040516101f09190612733565b60405180910390f35b6102016105c1565b60405161020e91906127e7565b60405180910390f35b610231600480360381019061022c919061283f565b610653565b60405161023e91906128ad565b60405180910390f35b610261600480360381019061025c91906128f4565b6106d8565b005b61027d60048036038101906102789190612934565b6107f0565b005b610299600480360381019061029491906129bd565b610850565b6040516102a691906129f9565b60405180910390f35b6102c960048036038101906102c49190612a14565b610870565b6040516102d69190612733565b60405180910390f35b6102f960048036038101906102f49190612a41565b610886565b005b61031560048036038101906103109190612a41565b6108a7565b005b610331600480360381019061032c9190612934565b61092a565b005b61034d6004803603810190610348919061283f565b61094a565b005b6103696004803603810190610364919061283f565b6109a6565b60405161037691906128ad565b60405180910390f35b610387610a58565b60405161039491906129f9565b60405180910390f35b6103b760048036038101906103b29190612a14565b610a7c565b6040516103c49190612a90565b60405180910390f35b6103d5610b34565b6040516103e291906129f9565b60405180910390f35b6103f3610b58565b6040516104009190612a90565b60405180910390f35b610423600480360381019061041e9190612a41565b610b61565b6040516104309190612733565b60405180910390f35b610441610bcc565b60405161044e91906127e7565b60405180910390f35b61045f610c5e565b60405161046c91906129f9565b60405180910390f35b61048f600480360381019061048a9190612ad7565b610c65565b005b6104ab60048036038101906104a69190612b17565b610c7b565b005b6104c760048036038101906104c29190612a14565b610d51565b6040516104d49190612733565b60405180910390f35b6104f760048036038101906104f29190612c8c565b610d98565b005b610513600480360381019061050e919061283f565b610dfa565b60405161052091906127e7565b60405180910390f35b610543600480360381019061053e9190612db0565b610e0c565b005b61054d610e85565b60405161055a91906129f9565b60405180910390f35b61057d60048036038101906105789190612a41565b610ea9565b005b61059960048036038101906105949190612e0c565b610eca565b6040516105a69190612733565b60405180910390f35b60006105ba82610f5e565b9050919050565b6060600080546105d090612e7b565b80601f01602080910402602001604051908101604052809291908181526020018280546105fc90612e7b565b80156106495780601f1061061e57610100808354040283529160200191610649565b820191906000526020600020905b81548152906001019060200180831161062c57829003601f168201915b5050505050905090565b600061065e82610fd8565b61069d576040517f08c379a000000000000000000000000000000000000000000000000000000000815260040161069490612f1f565b60405180910390fd5b6004600083815260200190815260200160002060009054906101000a900473ffffffffffffffffffffffffffffffffffffffff169050919050565b60006106e3826109a6565b90508073ffffffffffffffffffffffffffffffffffffffff168373ffffffffffffffffffffffffffffffffffffffff161415610754576040517f08c379a000000000000000000000000000000000000000000000000000000000815260040161074b90612fb1565b60405180910390fd5b8073ffffffffffffffffffffffffffffffffffffffff16610773611044565b73ffffffffffffffffffffffffffffffffffffffff1614806107a257506107a18161079c611044565b610eca565b5b6107e1576040517f08c379a00000000000000000000000000000000000000000000000000000000081526004016107d890613043565b60405180910390fd5b6107eb838361104c565b505050565b6108016107fb611044565b82611105565b610840576040517f08c379a0000000000000000000000000000000000000000000000000000000008152600401610837906130d5565b60405180910390fd5b61084b8383836111e3565b505050565b600060076000838152602001908152602001600020600101549050919050565b600061087f6000801b83610b61565b9050919050565b61088f82610850565b6108988161144a565b6108a2838361145e565b505050565b6108af611044565b73ffffffffffffffffffffffffffffffffffffffff168173ffffffffffffffffffffffffffffffffffffffff161461091c576040517f08c379a000000000000000000000000000000000000000000000000000000000815260040161091390613167565b60405180910390fd5b610926828261153f565b5050565b61094583838360405180602001604052806000815250610d98565b505050565b61095b610955611044565b82611105565b61099a576040517f08c379a0000000000000000000000000000000000000000000000000000000008152600401610991906131f9565b60405180910390fd5b6109a381611621565b50565b6000806002600084815260200190815260200160002060009054906101000a900473ffffffffffffffffffffffffffffffffffffffff169050600073ffffffffffffffffffffffffffffffffffffffff168173ffffffffffffffffffffffffffffffffffffffff161415610a4f576040517f08c379a0000000000000000000000000000000000000000000000000000000008152600401610a469061328b565b60405180910390fd5b80915050919050565b7f1cf2b81dce95f0e7b91e95903f9b70bc58c33207c55b6b0bc3ba3d0522942e3181565b60008073ffffffffffffffffffffffffffffffffffffffff168273ffffffffffffffffffffffffffffffffffffffff161415610aed576040517f08c379a0000000000000000000000000000000000000000000000000000000008152600401610ae49061331d565b60405180910390fd5b600360008373ffffffffffffffffffffffffffffffffffffffff1673ffffffffffffffffffffffffffffffffffffffff168152602001908152602001600020549050919050565b7f8ee6ed50dc250dbccf4d86bd88d4956ab55c7de37d1fed5508924b70da11fe8b81565b60006001905090565b60006007600084815260200190815260200160002060000160008373ffffffffffffffffffffffffffffffffffffffff1673ffffffffffffffffffffffffffffffffffffffff16815260200190815260200160002060009054906101000a900460ff16905092915050565b606060018054610bdb90612e7b565b80601f0160208091040260200160405190810160405280929190818152602001828054610c0790612e7b565b8015610c545780601f10610c2957610100808354040283529160200191610c54565b820191906000526020600020905b815481529060010190602001808311610c3757829003601f168201915b5050505050905090565b6000801b81565b610c77610c70611044565b838361162d565b5050565b610c8433610870565b610cc3576040517f08c379a0000000000000000000000000000000000000000000000000000000008152600401610cba90613389565b60405180910390fd5b7f9f2df0fed2c77648de5860a4cc508cd0818c85b8b8a1ab4ceeef8d981c8956a6811480610d1057507f8ee6ed50dc250dbccf4d86bd88d4956ab55c7de37d1fed5508924b70da11fe8b81145b80610d3a57507f1cf2b81dce95f0e7b91e95903f9b70bc58c33207c55b6b0bc3ba3d0522942e3181145b610d4357600080fd5b610d4d8183610886565b5050565b6000610d606000801b83610b61565b80610d915750610d907f9f2df0fed2c77648de5860a4cc508cd0818c85b8b8a1ab4ceeef8d981c8956a683610b61565b5b9050919050565b610da9610da3611044565b83611105565b610de8576040517f08c379a0000000000000000000000000000000000000000000000000000000008152600401610ddf906130d5565b60405180910390fd5b610df48484848461179a565b50505050565b6060610e05826117f6565b9050919050565b610e1533610d51565b610e54576040517f08c379a0000000000000000000000000000000000000000000000000000000008152600401610e4b906133f5565b60405180910390fd5b6000610e606008611948565b9050610e6c6008611956565b610e76838261196c565b610e80818361198a565b505050565b7f9f2df0fed2c77648de5860a4cc508cd0818c85b8b8a1ab4ceeef8d981c8956a681565b610eb282610850565b610ebb8161144a565b610ec5838361153f565b505050565b6000600560008473ffffffffffffffffffffffffffffffffffffffff1673ffffffffffffffffffffffffffffffffffffffff16815260200190815260200160002060008373ffffffffffffffffffffffffffffffffffffffff1673ffffffffffffffffffffffffffffffffffffffff16815260200190815260200160002060009054906101000a900460ff16905092915050565b60007f7965db0b000000000000000000000000000000000000000000000000000000007bffffffffffffffffffffffffffffffffffffffffffffffffffffffff1916827bffffffffffffffffffffffffffffffffffffffffffffffffffffffff19161480610fd15750610fd0826119fe565b5b9050919050565b60008073ffffffffffffffffffffffffffffffffffffffff166002600084815260200190815260200160002060009054906101000a900473ffffffffffffffffffffffffffffffffffffffff1673ffffffffffffffffffffffffffffffffffffffff1614159050919050565b600033905090565b816004600083815260200190815260200160002060006101000a81548173ffffffffffffffffffffffffffffffffffffffff021916908373ffffffffffffffffffffffffffffffffffffffff160217905550808273ffffffffffffffffffffffffffffffffffffffff166110bf836109a6565b73ffffffffffffffffffffffffffffffffffffffff167f8c5be1e5ebec7d5bd14f71427d1e84f3dd0314c0f7b2291e5b200ac8c7c3b92560405160405180910390a45050565b600061111082610fd8565b61114f576040517f08c379a000000000000000000000000000000000000000000000000000000000815260040161114690613487565b60405180910390fd5b600061115a836109a6565b90508073ffffffffffffffffffffffffffffffffffffffff168473ffffffffffffffffffffffffffffffffffffffff16148061119c575061119b8185610eca565b5b806111da57508373ffffffffffffffffffffffffffffffffffffffff166111c284610653565b73ffffffffffffffffffffffffffffffffffffffff16145b91505092915050565b8273ffffffffffffffffffffffffffffffffffffffff16611203826109a6565b73ffffffffffffffffffffffffffffffffffffffff1614611259576040517f08c379a000000000000000000000000000000000000000000000000000000000815260040161125090613519565b60405180910390fd5b600073ffffffffffffffffffffffffffffffffffffffff168273ffffffffffffffffffffffffffffffffffffffff1614156112c9576040517f08c379a00000000000000000000000000000000000000000000000000000000081526004016112c0906135ab565b60405180910390fd5b6112d4838383611ae0565b6112df60008261104c565b6001600360008573ffffffffffffffffffffffffffffffffffffffff1673ffffffffffffffffffffffffffffffffffffffff168152602001908152602001600020600082825461132f91906135fa565b925050819055506001600360008473ffffffffffffffffffffffffffffffffffffffff1673ffffffffffffffffffffffffffffffffffffffff1681526020019081526020016000206000828254611386919061362e565b92505081905550816002600083815260200190815260200160002060006101000a81548173ffffffffffffffffffffffffffffffffffffffff021916908373ffffffffffffffffffffffffffffffffffffffff160217905550808273ffffffffffffffffffffffffffffffffffffffff168473ffffffffffffffffffffffffffffffffffffffff167fddf252ad1be2c89b69c2b068fc378daa952ba7f163c4a11628f55a4df523b3ef60405160405180910390a4611445838383611ae5565b505050565b61145b81611456611044565b611aea565b50565b6114688282610b61565b61153b5760016007600084815260200190815260200160002060000160008373ffffffffffffffffffffffffffffffffffffffff1673ffffffffffffffffffffffffffffffffffffffff16815260200190815260200160002060006101000a81548160ff0219169083151502179055506114e0611044565b73ffffffffffffffffffffffffffffffffffffffff168173ffffffffffffffffffffffffffffffffffffffff16837f2f8788117e7eff1d82e926ec794901d17c78024a50270940304540a733656f0d60405160405180910390a45b5050565b6115498282610b61565b1561161d5760006007600084815260200190815260200160002060000160008373ffffffffffffffffffffffffffffffffffffffff1673ffffffffffffffffffffffffffffffffffffffff16815260200190815260200160002060006101000a81548160ff0219169083151502179055506115c2611044565b73ffffffffffffffffffffffffffffffffffffffff168173ffffffffffffffffffffffffffffffffffffffff16837ff6391f5c32d9c69d2a47ea670b442974b53935d1edc7fd64eb21e047a839171b60405160405180910390a45b5050565b61162a81611b87565b50565b8173ffffffffffffffffffffffffffffffffffffffff168373ffffffffffffffffffffffffffffffffffffffff16141561169c576040517f08c379a0000000000000000000000000000000000000000000000000000000008152600401611693906136d0565b60405180910390fd5b80600560008573ffffffffffffffffffffffffffffffffffffffff1673ffffffffffffffffffffffffffffffffffffffff16815260200190815260200160002060008473ffffffffffffffffffffffffffffffffffffffff1673ffffffffffffffffffffffffffffffffffffffff16815260200190815260200160002060006101000a81548160ff0219169083151502179055508173ffffffffffffffffffffffffffffffffffffffff168373ffffffffffffffffffffffffffffffffffffffff167f17307eab39ab6107e8899845ad3d59bd9653f200f220920489ca2b5937696c318360405161178d9190612733565b60405180910390a3505050565b6117a58484846111e3565b6117b184848484611bda565b6117f0576040517f08c379a00000000000000000000000000000000000000000000000000000000081526004016117e790613762565b60405180910390fd5b50505050565b606061180182610fd8565b611840576040517f08c379a0000000000000000000000000000000000000000000000000000000008152600401611837906137f4565b60405180910390fd5b600060066000848152602001908152602001600020805461186090612e7b565b80601f016020809104026020016040519081016040528092919081815260200182805461188c90612e7b565b80156118d95780601f106118ae576101008083540402835291602001916118d9565b820191906000526020600020905b8154815290600101906020018083116118bc57829003601f168201915b5050505050905060006118ea611d62565b9050600081511415611900578192505050611943565b60008251111561193557808260405160200161191d929190613850565b60405160208183030381529060405292505050611943565b61193e84611d79565b925050505b919050565b600081600001549050919050565b6001816000016000828254019250508190555050565b611986828260405180602001604052806000815250611e20565b5050565b61199382610fd8565b6119d2576040517f08c379a00000000000000000000000000000000000000000000000000000000081526004016119c9906138e6565b60405180910390fd5b806006600084815260200190815260200160002090805190602001906119f992919061259c565b505050565b60007f80ac58cd000000000000000000000000000000000000000000000000000000007bffffffffffffffffffffffffffffffffffffffffffffffffffffffff1916827bffffffffffffffffffffffffffffffffffffffffffffffffffffffff19161480611ac957507f5b5e139f000000000000000000000000000000000000000000000000000000007bffffffffffffffffffffffffffffffffffffffffffffffffffffffff1916827bffffffffffffffffffffffffffffffffffffffffffffffffffffffff1916145b80611ad95750611ad882611e7b565b5b9050919050565b505050565b505050565b611af48282610b61565b611b8357611b198173ffffffffffffffffffffffffffffffffffffffff166014611ee5565b611b278360001c6020611ee5565b604051602001611b3892919061399e565b6040516020818303038152906040526040517f08c379a0000000000000000000000000000000000000000000000000000000008152600401611b7a91906127e7565b60405180910390fd5b5050565b611b9081612121565b6000600660008381526020019081526020016000208054611bb090612e7b565b905014611bd757600660008281526020019081526020016000206000611bd69190612622565b5b50565b6000611bfb8473ffffffffffffffffffffffffffffffffffffffff1661223e565b15611d55578373ffffffffffffffffffffffffffffffffffffffff1663150b7a02611c24611044565b8786866040518563ffffffff1660e01b8152600401611c469493929190613a2d565b6020604051808303816000875af1925050508015611c8257506040513d601f19601f82011682018060405250810190611c7f9190613a8e565b60015b611d05573d8060008114611cb2576040519150601f19603f3d011682016040523d82523d6000602084013e611cb7565b606091505b50600081511415611cfd576040517f08c379a0000000000000000000000000000000000000000000000000000000008152600401611cf490613762565b60405180910390fd5b805181602001fd5b63150b7a0260e01b7bffffffffffffffffffffffffffffffffffffffffffffffffffffffff1916817bffffffffffffffffffffffffffffffffffffffffffffffffffffffff191614915050611d5a565b600190505b949350505050565b606060405180602001604052806000815250905090565b6060611d8482610fd8565b611dc3576040517f08c379a0000000000000000000000000000000000000000000000000000000008152600401611dba90613b2d565b60405180910390fd5b6000611dcd611d62565b90506000815111611ded5760405180602001604052806000815250611e18565b80611df784612261565b604051602001611e08929190613850565b6040516020818303038152906040525b915050919050565b611e2a83836123c2565b611e376000848484611bda565b611e76576040517f08c379a0000000000000000000000000000000000000000000000000000000008152600401611e6d90613762565b60405180910390fd5b505050565b60007f01ffc9a7000000000000000000000000000000000000000000000000000000007bffffffffffffffffffffffffffffffffffffffffffffffffffffffff1916827bffffffffffffffffffffffffffffffffffffffffffffffffffffffff1916149050919050565b606060006002836002611ef89190613b4d565b611f02919061362e565b67ffffffffffffffff811115611f1b57611f1a612b61565b5b6040519080825280601f01601f191660200182016040528015611f4d5781602001600182028036833780820191505090505b5090507f300000000000000000000000000000000000000000000000000000000000000081600081518110611f8557611f84613ba7565b5b60200101907effffffffffffffffffffffffffffffffffffffffffffffffffffffffffffff1916908160001a9053507f780000000000000000000000000000000000000000000000000000000000000081600181518110611fe957611fe8613ba7565b5b60200101907effffffffffffffffffffffffffffffffffffffffffffffffffffffffffffff1916908160001a905350600060018460026120299190613b4d565b612033919061362e565b90505b60018111156120d3577f3031323334353637383961626364656600000000000000000000000000000000600f86166010811061207557612074613ba7565b5b1a60f81b82828151811061208c5761208b613ba7565b5b60200101907effffffffffffffffffffffffffffffffffffffffffffffffffffffffffffff1916908160001a905350600485901c9450806120cc90613bd6565b9050612036565b5060008414612117576040517f08c379a000000000000000000000000000000000000000000000000000000000815260040161210e90613c4c565b60405180910390fd5b8091505092915050565b600061212c826109a6565b905061213a81600084611ae0565b61214560008361104c565b6001600360008373ffffffffffffffffffffffffffffffffffffffff1673ffffffffffffffffffffffffffffffffffffffff168152602001908152602001600020600082825461219591906135fa565b925050819055506002600083815260200190815260200160002060006101000a81549073ffffffffffffffffffffffffffffffffffffffff021916905581600073ffffffffffffffffffffffffffffffffffffffff168273ffffffffffffffffffffffffffffffffffffffff167fddf252ad1be2c89b69c2b068fc378daa952ba7f163c4a11628f55a4df523b3ef60405160405180910390a461223a81600084611ae5565b5050565b6000808273ffffffffffffffffffffffffffffffffffffffff163b119050919050565b606060008214156122a9576040518060400160405280600181526020017f300000000000000000000000000000000000000000000000000000000000000081525090506123bd565b600082905060005b600082146122db5780806122c490613c6c565b915050600a826122d49190613ce4565b91506122b1565b60008167ffffffffffffffff8111156122f7576122f6612b61565b5b6040519080825280601f01601f1916602001820160405280156123295781602001600182028036833780820191505090505b5090505b600085146123b65760018261234291906135fa565b9150600a856123519190613d15565b603061235d919061362e565b60f81b81838151811061237357612372613ba7565b5b60200101907effffffffffffffffffffffffffffffffffffffffffffffffffffffffffffff1916908160001a905350600a856123af9190613ce4565b945061232d565b8093505050505b919050565b600073ffffffffffffffffffffffffffffffffffffffff168273ffffffffffffffffffffffffffffffffffffffff161415612432576040517f08c379a000000000000000000000000000000000000000000000000000000000815260040161242990613d92565b60405180910390fd5b61243b81610fd8565b1561247b576040517f08c379a000000000000000000000000000000000000000000000000000000000815260040161247290613dfe565b60405180910390fd5b61248760008383611ae0565b6001600360008473ffffffffffffffffffffffffffffffffffffffff1673ffffffffffffffffffffffffffffffffffffffff16815260200190815260200160002060008282546124d7919061362e565b92505081905550816002600083815260200190815260200160002060006101000a81548173ffffffffffffffffffffffffffffffffffffffff021916908373ffffffffffffffffffffffffffffffffffffffff160217905550808273ffffffffffffffffffffffffffffffffffffffff16600073ffffffffffffffffffffffffffffffffffffffff167fddf252ad1be2c89b69c2b068fc378daa952ba7f163c4a11628f55a4df523b3ef60405160405180910390a461259860008383611ae5565b5050565b8280546125a890612e7b565b90600052602060002090601f0160209004810192826125ca5760008555612611565b82601f106125e357805160ff1916838001178555612611565b82800160010185558215612611579182015b828111156126105782518255916020019190600101906125f5565b5b50905061261e9190612662565b5090565b50805461262e90612e7b565b6000825580601f10612640575061265f565b601f01602090049060005260206000209081019061265e9190612662565b5b50565b5b8082111561267b576000816000905550600101612663565b5090565b6000604051905090565b600080fd5b600080fd5b60007fffffffff0000000000000000000000000000000000000000000000000000000082169050919050565b6126c881612693565b81146126d357600080fd5b50565b6000813590506126e5816126bf565b92915050565b60006020828403121561270157612700612689565b5b600061270f848285016126d6565b91505092915050565b60008115159050919050565b61272d81612718565b82525050565b60006020820190506127486000830184612724565b92915050565b600081519050919050565b600082825260208201905092915050565b60005b8381101561278857808201518184015260208101905061276d565b83811115612797576000848401525b50505050565b6000601f19601f8301169050919050565b60006127b98261274e565b6127c38185612759565b93506127d381856020860161276a565b6127dc8161279d565b840191505092915050565b6000602082019050818103600083015261280181846127ae565b905092915050565b6000819050919050565b61281c81612809565b811461282757600080fd5b50565b60008135905061283981612813565b92915050565b60006020828403121561285557612854612689565b5b60006128638482850161282a565b91505092915050565b600073ffffffffffffffffffffffffffffffffffffffff82169050919050565b60006128978261286c565b9050919050565b6128a78161288c565b82525050565b60006020820190506128c2600083018461289e565b92915050565b6128d18161288c565b81146128dc57600080fd5b50565b6000813590506128ee816128c8565b92915050565b6000806040838503121561290b5761290a612689565b5b6000612919858286016128df565b925050602061292a8582860161282a565b9150509250929050565b60008060006060848603121561294d5761294c612689565b5b600061295b868287016128df565b935050602061296c868287016128df565b925050604061297d8682870161282a565b9150509250925092565b6000819050919050565b61299a81612987565b81146129a557600080fd5b50565b6000813590506129b781612991565b92915050565b6000602082840312156129d3576129d2612689565b5b60006129e1848285016129a8565b91505092915050565b6129f381612987565b82525050565b6000602082019050612a0e60008301846129ea565b92915050565b600060208284031215612a2a57612a29612689565b5b6000612a38848285016128df565b91505092915050565b60008060408385031215612a5857612a57612689565b5b6000612a66858286016129a8565b9250506020612a77858286016128df565b9150509250929050565b612a8a81612809565b82525050565b6000602082019050612aa56000830184612a81565b92915050565b612ab481612718565b8114612abf57600080fd5b50565b600081359050612ad181612aab565b92915050565b60008060408385031215612aee57612aed612689565b5b6000612afc858286016128df565b9250506020612b0d85828601612ac2565b9150509250929050565b60008060408385031215612b2e57612b2d612689565b5b6000612b3c858286016128df565b9250506020612b4d858286016129a8565b9150509250929050565b600080fd5b600080fd5b7f4e487b7100000000000000000000000000000000000000000000000000000000600052604160045260246000fd5b612b998261279d565b810181811067ffffffffffffffff82111715612bb857612bb7612b61565b5b80604052505050565b6000612bcb61267f565b9050612bd78282612b90565b919050565b600067ffffffffffffffff821115612bf757612bf6612b61565b5b612c008261279d565b9050602081019050919050565b82818337600083830152505050565b6000612c2f612c2a84612bdc565b612bc1565b905082815260208101848484011115612c4b57612c4a612b5c565b5b612c56848285612c0d565b509392505050565b600082601f830112612c7357612c72612b57565b5b8135612c83848260208601612c1c565b91505092915050565b60008060008060808587031215612ca657612ca5612689565b5b6000612cb4878288016128df565b9450506020612cc5878288016128df565b9350506040612cd68782880161282a565b925050606085013567ffffffffffffffff811115612cf757612cf661268e565b5b612d0387828801612c5e565b91505092959194509250565b600067ffffffffffffffff821115612d2a57612d29612b61565b5b612d338261279d565b9050602081019050919050565b6000612d53612d4e84612d0f565b612bc1565b905082815260208101848484011115612d6f57612d6e612b5c565b5b612d7a848285612c0d565b509392505050565b600082601f830112612d9757612d96612b57565b5b8135612da7848260208601612d40565b91505092915050565b60008060408385031215612dc757612dc6612689565b5b6000612dd5858286016128df565b925050602083013567ffffffffffffffff811115612df657612df561268e565b5b612e0285828601612d82565b9150509250929050565b60008060408385031215612e2357612e22612689565b5b6000612e31858286016128df565b9250506020612e42858286016128df565b9150509250929050565b7f4e487b7100000000000000000000000000000000000000000000000000000000600052602260045260246000fd5b60006002820490506001821680612e9357607f821691505b60208210811415612ea757612ea6612e4c565b5b50919050565b7f4552433732313a20617070726f76656420717565727920666f72206e6f6e657860008201527f697374656e7420746f6b656e0000000000000000000000000000000000000000602082015250565b6000612f09602c83612759565b9150612f1482612ead565b604082019050919050565b60006020820190508181036000830152612f3881612efc565b9050919050565b7f4552433732313a20617070726f76616c20746f2063757272656e74206f776e6560008201527f7200000000000000000000000000000000000000000000000000000000000000602082015250565b6000612f9b602183612759565b9150612fa682612f3f565b604082019050919050565b60006020820190508181036000830152612fca81612f8e565b9050919050565b7f4552433732313a20617070726f76652063616c6c6572206973206e6f74206f7760008201527f6e6572206e6f7220617070726f76656420666f7220616c6c0000000000000000602082015250565b600061302d603883612759565b915061303882612fd1565b604082019050919050565b6000602082019050818103600083015261305c81613020565b9050919050565b7f4552433732313a207472616e736665722063616c6c6572206973206e6f74206f60008201527f776e6572206e6f7220617070726f766564000000000000000000000000000000602082015250565b60006130bf603183612759565b91506130ca82613063565b604082019050919050565b600060208201905081810360008301526130ee816130b2565b9050919050565b7f416363657373436f6e74726f6c3a2063616e206f6e6c792072656e6f756e636560008201527f20726f6c657320666f722073656c660000000000000000000000000000000000602082015250565b6000613151602f83612759565b915061315c826130f5565b604082019050919050565b6000602082019050818103600083015261318081613144565b9050919050565b7f4552433732314275726e61626c653a2063616c6c6572206973206e6f74206f7760008201527f6e6572206e6f7220617070726f76656400000000000000000000000000000000602082015250565b60006131e3603083612759565b91506131ee82613187565b604082019050919050565b60006020820190508181036000830152613212816131d6565b9050919050565b7f4552433732313a206f776e657220717565727920666f72206e6f6e657869737460008201527f656e7420746f6b656e0000000000000000000000000000000000000000000000602082015250565b6000613275602983612759565b915061328082613219565b604082019050919050565b600060208201905081810360008301526132a481613268565b9050919050565b7f4552433732313a2062616c616e636520717565727920666f7220746865207a6560008201527f726f206164647265737300000000000000000000000000000000000000000000602082015250565b6000613307602a83612759565b9150613312826132ab565b604082019050919050565b60006020820190508181036000830152613336816132fa565b9050919050565b7f5265737472696374656420746f206f6e6c792061646d696e0000000000000000600082015250565b6000613373601883612759565b915061337e8261333d565b602082019050919050565b600060208201905081810360008301526133a281613366565b9050919050565b7f5265737472696374656420746f206f776e657220616e64206d696e7465727300600082015250565b60006133df601f83612759565b91506133ea826133a9565b602082019050919050565b6000602082019050818103600083015261340e816133d2565b9050919050565b7f4552433732313a206f70657261746f7220717565727920666f72206e6f6e657860008201527f697374656e7420746f6b656e0000000000000000000000000000000000000000602082015250565b6000613471602c83612759565b915061347c82613415565b604082019050919050565b600060208201905081810360008301526134a081613464565b9050919050565b7f4552433732313a207472616e736665722066726f6d20696e636f72726563742060008201527f6f776e6572000000000000000000000000000000000000000000000000000000602082015250565b6000613503602583612759565b915061350e826134a7565b604082019050919050565b60006020820190508181036000830152613532816134f6565b9050919050565b7f4552433732313a207472616e7366657220746f20746865207a65726f2061646460008201527f7265737300000000000000000000000000000000000000000000000000000000602082015250565b6000613595602483612759565b91506135a082613539565b604082019050919050565b600060208201905081810360008301526135c481613588565b9050919050565b7f4e487b7100000000000000000000000000000000000000000000000000000000600052601160045260246000fd5b600061360582612809565b915061361083612809565b925082821015613623576136226135cb565b5b828203905092915050565b600061363982612809565b915061364483612809565b9250827fffffffffffffffffffffffffffffffffffffffffffffffffffffffffffffffff03821115613679576136786135cb565b5b828201905092915050565b7f4552433732313a20617070726f766520746f2063616c6c657200000000000000600082015250565b60006136ba601983612759565b91506136c582613684565b602082019050919050565b600060208201905081810360008301526136e9816136ad565b9050919050565b7f4552433732313a207472616e7366657220746f206e6f6e20455243373231526560008201527f63656976657220696d706c656d656e7465720000000000000000000000000000602082015250565b600061374c603283612759565b9150613757826136f0565b604082019050919050565b6000602082019050818103600083015261377b8161373f565b9050919050565b7f45524337323155524953746f726167653a2055524920717565727920666f722060008201527f6e6f6e6578697374656e7420746f6b656e000000000000000000000000000000602082015250565b60006137de603183612759565b91506137e982613782565b604082019050919050565b6000602082019050818103600083015261380d816137d1565b9050919050565b600081905092915050565b600061382a8261274e565b6138348185613814565b935061384481856020860161276a565b80840191505092915050565b600061385c828561381f565b9150613868828461381f565b91508190509392505050565b7f45524337323155524953746f726167653a2055524920736574206f66206e6f6e60008201527f6578697374656e7420746f6b656e000000000000000000000000000000000000602082015250565b60006138d0602e83612759565b91506138db82613874565b604082019050919050565b600060208201905081810360008301526138ff816138c3565b9050919050565b7f416363657373436f6e74726f6c3a206163636f756e7420000000000000000000600082015250565b600061393c601783613814565b915061394782613906565b601782019050919050565b7f206973206d697373696e6720726f6c6520000000000000000000000000000000600082015250565b6000613988601183613814565b915061399382613952565b601182019050919050565b60006139a98261392f565b91506139b5828561381f565b91506139c08261397b565b91506139cc828461381f565b91508190509392505050565b600081519050919050565b600082825260208201905092915050565b60006139ff826139d8565b613a0981856139e3565b9350613a1981856020860161276a565b613a228161279d565b840191505092915050565b6000608082019050613a42600083018761289e565b613a4f602083018661289e565b613a5c6040830185612a81565b8181036060830152613a6e81846139f4565b905095945050505050565b600081519050613a88816126bf565b92915050565b600060208284031215613aa457613aa3612689565b5b6000613ab284828501613a79565b91505092915050565b7f4552433732314d657461646174613a2055524920717565727920666f72206e6f60008201527f6e6578697374656e7420746f6b656e0000000000000000000000000000000000602082015250565b6000613b17602f83612759565b9150613b2282613abb565b604082019050919050565b60006020820190508181036000830152613b4681613b0a565b9050919050565b6000613b5882612809565b9150613b6383612809565b9250817fffffffffffffffffffffffffffffffffffffffffffffffffffffffffffffffff0483118215151615613b9c57613b9b6135cb565b5b828202905092915050565b7f4e487b7100000000000000000000000000000000000000000000000000000000600052603260045260246000fd5b6000613be182612809565b91506000821415613bf557613bf46135cb565b5b600182039050919050565b7f537472696e67733a20686578206c656e67746820696e73756666696369656e74600082015250565b6000613c36602083612759565b9150613c4182613c00565b602082019050919050565b60006020820190508181036000830152613c6581613c29565b9050919050565b6000613c7782612809565b91507fffffffffffffffffffffffffffffffffffffffffffffffffffffffffffffffff821415613caa57613ca96135cb565b5b600182019050919050565b7f4e487b7100000000000000000000000000000000000000000000000000000000600052601260045260246000fd5b6000613cef82612809565b9150613cfa83612809565b925082613d0a57613d09613cb5565b5b828204905092915050565b6000613d2082612809565b9150613d2b83612809565b925082613d3b57613d3a613cb5565b5b828206905092915050565b7f4552433732313a206d696e7420746f20746865207a65726f2061646472657373600082015250565b6000613d7c602083612759565b9150613d8782613d46565b602082019050919050565b60006020820190508181036000830152613dab81613d6f565b9050919050565b7f4552433732313a20746f6b656e20616c7265616479206d696e74656400000000600082015250565b6000613de8601c83612759565b9150613df382613db2565b602082019050919050565b60006020820190508181036000830152613e1781613ddb565b905091905056fea264697066735822122047ca418cabacf1850f2ee943223304bca0d22576435747e0580d5f2aea49ceee64736f6c634300080a0033",
    "immutableReferences": {},
    "source": "// SPDX-License-Identifier: MIT\r\npragma solidity ^0.8.4;\r\n\r\nimport \"openzeppelin-solidity/contracts/token/ERC721/ERC721.sol\";\r\nimport \"openzeppelin-solidity/contracts/token/ERC721/extensions/ERC721URIStorage.sol\";\r\nimport \"openzeppelin-solidity/contracts/token/ERC721/extensions/ERC721Burnable.sol\";\r\nimport \"openzeppelin-solidity/contracts/access/AccessControl.sol\";\r\nimport \"openzeppelin-solidity/contracts/utils/Counters.sol\";\r\n\r\ncontract flipCard is ERC721, ERC721URIStorage, ERC721Burnable, AccessControl {\r\n    using Counters for Counters.Counter;\r\n\r\n    bytes32 public constant MINTER_ROLE = keccak256(\"MINTER_ROLE\"); // can mint new NFTs\r\n    bytes32 public constant HANDLER_ROLE = keccak256(\"HANDLER_ROLE\"); //can handle repair and repairments\r\n    bytes32 public constant BOOK_KEEPER_ROLE = keccak256(\"BOOK_KEEPER_ROLE\"); // can transfer the NFTs to anyone & update their issue dates\r\n    Counters.Counter private _tokenIdCounter;\r\n\r\n    constructor() ERC721(\"FlipCards\", \"FCRDS\") {\r\n        //Called when the blockchain starts\r\n        //This way the person initializing the blockchain have all the necessary roles\r\n        _grantRole(DEFAULT_ADMIN_ROLE, msg.sender);\r\n        //These roles are just provided for readiblity and scope assessment, just DEFAULT_ADMIN_ROLE is equivalent to these\r\n        _grantRole(MINTER_ROLE, msg.sender);\r\n        _grantRole(HANDLER_ROLE, msg.sender);\r\n        _grantRole(BOOK_KEEPER_ROLE, msg.sender);\r\n    }\r\n\r\n    /// Return 'true' if the account belongs to a minter\r\n    function isMinter(address account) public view virtual returns (bool) {\r\n        return\r\n            hasRole(DEFAULT_ADMIN_ROLE, account) ||\r\n            hasRole(MINTER_ROLE, account);\r\n    }\r\n\r\n    /// Restricted to the minters of the NFT\r\n    modifier onlyMinter() {\r\n        //user who can mint a new NFT\r\n        require(isMinter(msg.sender), \"Restricted to owner and minters\");\r\n        _;\r\n    }\r\n\r\n    /// Return 'true' if the account is the admin account\r\n    function isAdmin(address account) public view virtual returns (bool) {\r\n        return hasRole(DEFAULT_ADMIN_ROLE, account);\r\n    }\r\n\r\n    /// Restricted to the minters of the NFT\r\n    modifier onlyAdmin() {\r\n        //user who can mint a new NFT\r\n        require(isAdmin(msg.sender), \"Restricted to only admin\");\r\n        _;\r\n    }\r\n\r\n    /// updates the roles for the passed address\r\n    function addRole(address member, bytes32 role) public virtual onlyAdmin {\r\n        /**\r\n        member -> address of user whose role we need to update\r\n        role -> string defining the role for member\r\n         */\r\n        require(\r\n            role == MINTER_ROLE ||\r\n                role == HANDLER_ROLE ||\r\n                role == BOOK_KEEPER_ROLE\r\n        );\r\n        grantRole(role, member);\r\n    }\r\n\r\n    function safeMint(address to, string memory uri) public onlyMinter {\r\n        uint256 tokenId = _tokenIdCounter.current();\r\n        _tokenIdCounter.increment();\r\n        _safeMint(to, tokenId);\r\n        _setTokenURI(tokenId, uri);\r\n    }\r\n\r\n    // The following functions are overrides required by Solidity.\r\n\r\n    function _burn(uint256 tokenId)\r\n        internal\r\n        override(ERC721, ERC721URIStorage)\r\n    {\r\n        super._burn(tokenId);\r\n    }\r\n    function heartbear() public returns(uint256){\r\n        return 1;\r\n    }\r\n    function tokenURI(uint256 tokenId)\r\n        public\r\n        view\r\n        override(ERC721, ERC721URIStorage)\r\n        returns (string memory)\r\n    {\r\n        return super.tokenURI(tokenId);\r\n    }\r\n\r\n    function supportsInterface(bytes4 interfaceId)\r\n        public\r\n        view\r\n        override(ERC721, AccessControl)\r\n        returns (bool)\r\n    {\r\n        return super.supportsInterface(interfaceId);\r\n    }\r\n}\r\n",
    "sourcePath": "H:\\backend-flip\\contracts\\flipCard.sol",
    "compiler": {
        "name": "solc",
        "version": "0.8.10+commit.fc410830.Emscripten.clang"
    },
    "schemaVersion": "3.4.8",
    "updatedAt": "2022-07-30T08:28:56.461Z",
    "devdoc": {
        "kind": "dev",
        "methods": {
            "approve(address,uint256)": {
                "details": "See {IERC721-approve}."
            },
            "balanceOf(address)": {
                "details": "See {IERC721-balanceOf}."
            },
            "burn(uint256)": {
                "details": "Burns `tokenId`. See {ERC721-_burn}. Requirements: - The caller must own `tokenId` or be an approved operator."
            },
            "getApproved(uint256)": {
                "details": "See {IERC721-getApproved}."
            },
            "getRoleAdmin(bytes32)": {
                "details": "Returns the admin role that controls `role`. See {grantRole} and {revokeRole}. To change a role's admin, use {_setRoleAdmin}."
            },
            "grantRole(bytes32,address)": {
                "details": "Grants `role` to `account`. If `account` had not been already granted `role`, emits a {RoleGranted} event. Requirements: - the caller must have ``role``'s admin role."
            },
            "hasRole(bytes32,address)": {
                "details": "Returns `true` if `account` has been granted `role`."
            },
            "isApprovedForAll(address,address)": {
                "details": "See {IERC721-isApprovedForAll}."
            },
            "name()": {
                "details": "See {IERC721Metadata-name}."
            },
            "ownerOf(uint256)": {
                "details": "See {IERC721-ownerOf}."
            },
            "renounceRole(bytes32,address)": {
                "details": "Revokes `role` from the calling account. Roles are often managed via {grantRole} and {revokeRole}: this function's purpose is to provide a mechanism for accounts to lose their privileges if they are compromised (such as when a trusted device is misplaced). If the calling account had been revoked `role`, emits a {RoleRevoked} event. Requirements: - the caller must be `account`."
            },
            "revokeRole(bytes32,address)": {
                "details": "Revokes `role` from `account`. If `account` had been granted `role`, emits a {RoleRevoked} event. Requirements: - the caller must have ``role``'s admin role."
            },
            "safeTransferFrom(address,address,uint256)": {
                "details": "See {IERC721-safeTransferFrom}."
            },
            "safeTransferFrom(address,address,uint256,bytes)": {
                "details": "See {IERC721-safeTransferFrom}."
            },
            "setApprovalForAll(address,bool)": {
                "details": "See {IERC721-setApprovalForAll}."
            },
            "symbol()": {
                "details": "See {IERC721Metadata-symbol}."
            },
            "transferFrom(address,address,uint256)": {
                "details": "See {IERC721-transferFrom}."
            }
        },
        "version": 1
    },
    "userdoc": {
        "kind": "user",
        "methods": {
            "addRole(address,bytes32)": {
                "notice": "updates the roles for the passed address"
            },
            "isAdmin(address)": {
                "notice": "Return 'true' if the account is the admin account"
            },
            "isMinter(address)": {
                "notice": "Return 'true' if the account belongs to a minter"
            }
        },
        "version": 1
    }
}